:100000000C9434000C943E000C943E000C943E0082
:100010000C943E000C943E000C943E000C943E0068
:100020000C943E000C943E000C943E000C943E0058
:100030000C943E000C943E000C943E000C943E0048
:100040000C943E000C943E000C943E000C943E0038
:100050000C943E000C943E000C943E000C943E0028
:100060000C943E000C943E0011241FBECFEFD8E04C
:10007000DEBFCDBF0E9497000C94E4000C940000FA
:10008000009731F42BB12F632BB925B1206F08C035
:100090008130910539F42BB12FEF2BB925B1296FA0
:1000A00025B91EC08230910539F42BB12F652BB9CB
:1000B00025B1226F25B91AC08330910539F425B1D5
:1000C000206F25B92BB12F6D2BB91FC0843091053E
:1000D00039F425B1296F25B92BB12F692BB91EC071
:1000E0008530910519F485B1846F1CC08630910567
:1000F00019F485B1846F0EC08730910531F485B154
:10010000816F85B98BB18FEF10C08830910531F4C4
:1001100085B1806F85B98BB18F6107C0099731F4C4
:1001200085B1816F85B98BB18F698BB9089584B121
:100130008F6084B98AB1806E8AB987B117B888B1E7
:10014000846188B98BB18F718BB985B1807F85B996
:10015000C0E0D0E032991DC0CA30D105D4F48BB1D3
:100160008F718BB985B1807F85B9CE010E94400027
:100170002FEF83EC99E0215080409040E1F700C0E0
:1001800000002196CA30D10511F4C0E0D0E03499C6
:10019000E3CF3499DFCF8BB18F718BB985B1807F7D
:1001A00085B9CE010E9440002FEF83EC99E02150E9
:1001B00080409040E1F700C00000219710F4C9E0B2
:0C01C000D0E03299E8CFC6CFF894FFCF12
:00000001FF
